S01800007333326B3134345F44656D6F5F43414E2E737265631B
S1130000007000201104000059040000590400008D
S113001059040000590400005904000000000000C5
S1130020000000000000000000000000590400006F
S1130030590400000000000059040000A549000014
S11300409F210000A9210000B3210000BD21000070
S1130050C7210000D1210000DB210000E5210000C0
S1130060EF210000F9210000032200000D2200000E
S113007017220000212200002B220000352200005C
S11300803F220000590400005904000059040000F4
S113009059040000590400005904000059040000E8
S11300A059040000590400005904000059040000D8
S11300B059040000590400005904000059040000C8
S11300C059040000590400005904000059040000B8
S11300D059040000590400005904000059040000A8
S11300E05904000059040000590400005904000098
S11300F05904000059040000590400005904000088
S11301005904000059040000590400005904000077
S11301105904000059040000590400005904000067
S11301205904000059040000590400005904000057
S11301305904000059040000590400005904000047
S11301405904000059040000590400005904000037
S11301505904000059040000590400005904000027
S11301605904000059040000590400005904000017
S11301705904000059040000153600001F36000021
S113018029360000333600003D36000059040000D3
S1130190590400004736000051360000590400009D
S11301A05B360000590400005904000059040000A3
S11301B0653600006F3600005904000079360000EF
S11301C059040000590400005904000059040000B7
S11301D059040000590400005904000059040000A7
S11301E05904000059040000590400005904000097
S11301F05904000059040000590400005904000087
S11303F0590400005904000059040000FFFFFFFFE6
S1130400FFFFFFFFFFFFFFFFFFFFFFFFFE7FFFFF79
S113041072B64FF000014FF000024FF000034FF0AE
S113042000044FF000054FF000064FF00007B846F7
S1130430B946BA46BB46BC4604488546044880478C
S11304400448804762B604F047FCFEE700700020D1
S1130450310800006D080000FFF7FEBF53B94AB928
S1130460002908BF00281CBF4FF0FF314FF0FF30B8
S113047000F07EB9ADF1080C6DE904CE00F006F889
S1130480DDF804E0DDE9022304B070472DE9F0470C
S1130490089D04468E46002B4ED18A4294466DD95F
S11304A0B2FA82F757B1C7F1200EB94020FA0EFE16
S11304B002FA07FC4EEA010E00FA07F44FEA1C495F
S11304C0210CBEFBF9F61FFA8CF809FB16EE41EA83
S11304D00E4106FB08F38B420AD91CEB010106F11D
S11304E0FF3280F027818B4240F22481023E614436
S11304F0C91AA4B2B1FBF9F009FB101144EA014492
S113050000FB08F8A0450AD91CEB040400F1FF33F2
S113051080F00E81A04540F20B810238644440EA29
S11305200640A4EB080400267DB1FC4000232C60A7
S11305306B603146BDE8F0878B4209D9002D00F08D
S11305401481002685E8030030463146BDE8F08773
S1130550B3FA83F6002E40F090808B4202D382429D
S113056000F2FD80841A61EB030101208E46002D08
S1130570EBD085E810403146BDE8F0871AB94FF05A
S1130580010CBCFBF2FCBCFA8CF7A7BBA1EB0C037F
S11305904FEA1C421FFA8CF80126B3FBF2FE210C31
S11305A002FB1E3341EA034108FB0EF38B4208D9D8
S11305B01CEB01010EF1FF3002D28B4200F2D1801C
S11305C08646C91AA3B2B1FBF2F002FB101143EA4A
S11305D0014408FB00F8A04508D91CEB040400F111
S11305E0FF3302D2A04500F2B7801846A4EB0804FA
S11305F040EA0E4098E7C7F1200301FA07F40CFA29
S113060007FC20FA03FED9404FEA1C424EEA040ECE
S1130610B1FBF2F64FEA1E4302FB16111FFA8CF8E7
S113062043EA014306FB08F1994200FA07F40AD9A8
S11306301CEB030306F1FF3080F08C80994240F2FA
S11306408980023E63445B1A1FFA8EF1B3FBF2F019
S113065002FB103341EA034100FB08F38B4208D943
S11306601CEB010100F1FF3E70D28B426ED90238BF
S11306706144CB1A40EA06468FE7C6F1200722FA06
S113068007F8B34001FA06F448EA030320FA07FC2A
S11306904FEA134EF9404CEA040CB1FBFEF94FEA61
S11306A01C440EFB19111FFA83F844EA014109FBAB
S11306B008F48C4202FA06F200FA06FA08D959182C
S11306C009F1FF3044D28C4242D9A9F102091944FC
S11306D0091B1FFA8CFCB1FBFEF00EFB10114CEA57
S11306E0014400FB08F8A04507D91C1900F1FF31AB
S11306F02AD2A04528D902381C4440EA0940A4EB78
S11307000804A0FB02894C45C446494616D313D0BD
S113071055B1BAEB0C0364EB010404FA07F7F34098
S11307201F43F4402F606C6000263146BDE8F0871B
S11307301846F4E61646DBE6C245E9D2B8EB020CED
S113074069EB03010138E3E70846D6E7704690E712
S11307508146BDE7064676E70238644446E73046FC
S113076005E7AEF1020E61442BE72E462846ECE67F
S1130770704700BF034613F8012B002AFBD1181A57
S11307800138704700000000000000000000000075
S113079001F0FF01102A2BDB10F0070F08D010F82E
S11307A0013B013A8B422DD010F0070F42B3F6D132
S11307B0F0B441EA012141EA014122F007047FF04B
S11307C000070023F0E80256083C85EA010586EAA2
S11307D0010685FA47F5A3FA87F586FA47F6A5FADE
S11307E087F68EB9EED1F0BC01F0FF0102F00702EA
S11307F032B110F8013B013A83EA010313B1F8D195
S11308000020704701387047002D06BF3546033875
S1130810073815F0010F07D1013015F4807F02BFAE
S1130820013015F4C03F0130F0BC0138704700BFFF
S11308304FF0E023D3F8882D42F47002C3F8882DDA
S1130840D3F8342F22F08042C3F8342F054B064AE4
S11308505A605A6842F220121A604FF6FF729A6088
S1130860704700BF0020054020C528D9264B274AE1
S11308709A4208D013462448254A13F8011B02F86B
S1130880011B9842F9D1234B234A9A4208D01346BC
S11308902048224A13F8011B02F8011B8342F9D1B4
S11308A01F4B204A9A4206D0134600211C4A03F8E3
S11308B0011B9342FBD11C4B1C4A9A4208D013469D
S11308C019481B4A13F8011B02F8011B8342F9D192
S11308D0184B194A9A4212D010B4184CA40808D0E4
S11308E01946002351F8040B42F8040B0133A342C8
S11308F0F8D1134B104A1A605DF8044B7047104B43
S11309000C4A1A60704700BFE86D0000946900004B
S11309100084FF1FE86D0000E86D00005488FF1F8D
S1130920FC23002000000020E86D0000E86D0000BA
S113093000000020000000000080FF1F00040000F1
S113094008ED00E0074B5B69DBB2042B06D0802B7B
S113095006D0012B0CBF01200420704702207047F1
S11309600320704700E00740044BD3F8003113F034
S1130970807F1ABF024B1868002070470040064071
S11309805800002010B584B00B4600293BD0444ADF
S1130990D2F8002112F0007F7DD1414AD2F8001133
S11309A021F40001C2F800114FF08061C2F8001177
S11309B000213C4A1160002870D05A7A120202F4D5
S11309C0E062197A01F007010A433548C0F80421AE
S11309D0DA79120102F030029979C90001F00801B4
S11309E00A435979890001F004010A43C0F8082137
S11309F01A79012A29D0E2B1022A32D01A68294B85
S1130A001A60294C3BE000238DF804308DF80C303B
S1130A1001228DF808208DF809208DF805208DF825
S1130A20063002238DF8073004AB204A43F8102D1A
S1130A30ADE71A7B002A14BF4FF40002002242F0F3
S1130A4001021749C1F80021D8E71A7B002A14BF14
S1130A504FF40002002242F001121149C1F80021B2
S1130A60CCE71A7B002A14BF4FF403024FF4403240
S1130A7042F001020A49C1F80021BFE7013CFFF737
S1130A8073FF18B9002CF9D1032005E0002C14BF22
S1130A900020032000E0022004B010BD0020FBE78A
S1130AA0004006405800002088E7300000127A0019
S1130AB0084BD3F8003213F0807F09D0054BD3F8EC
S1130AC0083203F00103002B034808BF00207047DD
S1130AD0002070470040064000127A0010B582B032
S1130AE00B46002938D02D4AD2F8002212F0007F9C
S1130AF04FD12A4AD2F8001221F40001C2F80012A0
S1130B000021C2F80012002846D09A78120202F49A
S1130B10E062597801F007010A432049C1F8042230
S1130B201A7802F00102C1F8082259799A791B79DE
S1130B30002B14BF03230123002914BF0421002127
S1130B400B43002A14BF4FF4000200221343134A3C
S1130B50C2F80032642410E000238DF8043001222E
S1130B608DF805208DF806308DF801208DF80220CF
S1130B7002AB03F8082DB6E7013CFFF799FF18B95B
S1130B80002CF9D1032005E0002C14BF0020032021
S1130B9000E0022002B010BD0020FBE70040064048
S1130BA0054BD3F8003313F0807F1DBF024BD3F8FD
S1130BB0083302480020704700400640006CDC0205
S1130BC010B582B00B46002932D0294AD2F800234E
S1130BD012F0007F47D1264AD2F8001321F4000115
S1130BE0C2F800134FF08061C2F8001300283DD012
S1130BF09A78120202F4E062597801F007010A437C
S1130C001B49C1F804231A7802F00302C1F808232F
S1130C109A795B79002B14BF01230923002A14BF9E
S1130C204FF4000200221343C1F8003314240EE0F1
S1130C3001238DF8053000228DF806208DF801304F
S1130C408DF8023002AB03F8082DBEE7013CFFF734
S1130C50A7FF18B9002CF9D1032005E0002C14BF1C
S1130C600020032000E0022002B010BD0020FBE7BA
S1130C700040064008B50F4BD3F8003613F0807FD0
S1130C8002D10023184608BDFFF76EFE0346002874
S1130C90F8D00849D1F80826C2F302220132B0FB89
S1130CA0F2F3D1F80826C2F30442103203FB02F334
S1130CB05B08E7E70040064010B584B00C4699B1E4
S1130CC03D4BD3F8003613F0007F72D13A4BD3F882
S1130CD0002622F40002C3F800264FF08062C3F815
S1130CE00026A0B9002065E000238DF804308DF8BB
S1130CF00B3001228DF808208DF809208DF805307D
S1130D0007228DF806208DF8073001ACD8E7FFF7ED
S1130D102BFE63791B0203F4E063227902F00702DD
S1130D2013432549C1F8043663781B0203F4E063D6
S1130D30A278120402F4F8121343C1F80836237897
S1130D40012B16D04BB1022B1FD04FF47A74FFF74E
S1130D5091FF48BB34B3013CF9E7E379002B14BF9E
S1130D604FF40003002343F00103134AC2F8003692
S1130D70EBE7E379002B14BF4FF40003002343F0A7
S1130D8001130D4AC2F80036DFE7E379002B14BFE4
S1130D904FF403034FF4403343F00103064AC2F80F
S1130DA00036D2E7032005E0002C14BF0020032006
S1130DB000E0022004B010BD004006402DE9F041DF
S1130DC080460D468C7801344E7806FB04460F7835
S1130DD007FB0447CB78013B052B1CD8DFE803F065
S1130DE00312151B1B18FFF7BFFD0009B8F1020F12
S1130DF04AD0B8F1030F7BD0B8F1010F0DD0002019
S1130E00BDE8F081FFF754FEEFE7FFF7C9FEECE71A
S1130E10FFF730FFE9E70020E7E7EA7802EB420159
S1130E205B4B53F821301B0904FB03F4A04200F28E
S1130E3093800B46564901EB83035B681B0906FB51
S1130E4003F6B04200F28B8002EB420301EB830312
S1130E509B681B0907FB03F7B84200F28380AB7859
S1130E601B0403F47023120602F0706213432A7801
S1130E7002F00F0213436A781201D2B21343454AB7
S1130E8053610020BDE8F081EA7802EB4201424B55
S1130E9053F821301B0904FB03F4A04265D80B4628
S1130EA03D4901EB83035B681B0906FB03F6B04273
S1130EB05ED802EB420301EB83039B681B0907FB2B
S1130EC003F7B84257D8AB781B0403F47023120617
S1130ED002F0706213432A7802F00F0213436A7817
S1130EE01201D2B213432B4A93610020BDE8F08172
S1130EF0EB7803EB4301294A52F82120120904FB41
S1130F0002F4A0423AD80A46244901EB820252680C
S1130F10120906FB02F6B04233D803EB430201EB9D
S1130F2082029268120907FB02F7B8422CD8AA7809
S1130F30120402F470221B0603F0706313432A7830
S1130F4002F00F0213436A781201D2B21343114A1A
S1130F50D3610020BDE8F0810120BDE8F0810120CB
S1130F60BDE8F0810120BDE8F0810120BDE8F081F9
S1130F700120BDE8F0810120BDE8F0810120BDE839
S1130F80F0810120BDE8F0810120BDE8F08100BFBF
S1130F90D8660000004006402C670000846600000C
S1130FA038B50546FFF7CEFC2946FFF707FF044690
S1130FB058B9E8780A220849013A0B69C3F3036374
S1130FC0984204D0002AF7D10324204638BD002AD1
S1130FD008BF0324F9E700BF0040064010B50446EB
S1130FE01B4B1B69C3F30363013B052B1DD8DFE8CF
S1130FF003F00313161C1C19FFF7B6FC144B1B69F2
S1131000C3F303430133B0FBF3F0012C0FD0ECB175
S1131010022C14D0002010BDFFF74AFDEEE7FFF7C5
S1131020BFFDEBE7FFF726FEE8E70020E6E7084B05
S11310301B69C3F303130133B0FBF3F010BD044B7E
S11310401B6903F00F030133B0FBF3F010BD00BFC5
S11310500040064008B50F4B1B6AC3F30363062B1D
S113106015D8DFE803F004080B0E14141100022055
S1131070FFF7B4FF08BDFFF777FC08BDFFF718FDC5
S113108008BDFFF78DFD08BDFFF7F4FD08BD002086
S113109008BD00BF0040064008B541B1012931D068
S11310A00020024610B1431E22FA03F008BD0438A2
S11310B0032852D8DFE800F00B02141DFFF770FD7F
S11310C00246294BD3F8040300F00700EAE7FFF7D0
S11310D0EFFC0246244BD3F8040200F00700E1E7DA
S11310E0FFF742FC0246204BD3F8040100F007004E
S11310F0D8E7FFF7BFFD02461B4BD3F8040600F008
S11311000700CFE7043803282AD8DFE800F00B02F1
S1131110141DFFF745FD0246134BD3F80403C0F337
S11311200220BFE7FFF7C4FC02460F4BD3F80402CA
S1131130C0F30220B6E7FFF717FC02460A4BD3F8C8
S11311400401C0F30220ADE7FFF794FD0246064B0D
S1131150D3F80406C0F30220A4E700200246A1E766
S1131160002002469EE700BF0040064008B5114B30
S11311701B69C3F30113032B19D8DFE803F002073B
S1131180101300210620FFF787FF08BD094B1869DB
S113119000F00200002818BF4FF4FA4008BD064BC7
S11311A0186808BD00210520FFF776FF08BD002060
S11311B008BD00BF008004403800002038B51C4B37
S11311C033F810309B0003F1804303F5CA231D68F4
S11311D0C5F3C0051C6804F00704AC4225D31868A5
S11311E0C0F3807010B31B68C3F30263013B052B8B
S11311F019D8DFE803F0030C101818140620FFF7C1
S11312004BFF0134B0FBF4F005FB000038BD0420B3
S1131210FFF742FFF5E70520FFF73EFFF1E7072060
S1131220FFF73AFFEDE70020EBE7002038BD00BFF1
S1131230E46500000F4B1B69C3F38103022B07D045
S1131240032B0ED0002B0CBF4FF4FA300020704754
S1131250084B186900F00200002818BF4FF4FA4048
S11312607047044B186900F00200002818BF4FF4BF
S1131270FA4070470080044008B5244B5B6813F4BF
S1131280006F40D0214B5B68C3F303130E2B09D8C6
S1131290DFE803F00A080D081208171C20252F08A0
S11312A029082C00002026E0FFF7D4FE23E00121CA
S11312B00620FFF7F1FE1EE001210420FFF7ECFEFB
S11312C019E001210520FFF7E7FE14E00020FFF7F5
S11312D085FE10E001210720FFF7DEFE0BE0012070
S11312E0FFF77CFE07E0FFF7A5FF04E0FFF73EFFF2
S11312F001E04FF4FA30054B5B68C3F3022301337A
S1131300B0FBF3F008BD002008BD00BF008004401E
S1131310F0B5A1B028B304460646002800F0FF80CB
S1131320644B1B69C3F30363032B00F0C980FFF70D
S113133037FC002800F0B48003238DF80730002226
S11313408DF8062001228DF8052020A800F87C3DA8
S1131350FFF726FE0546002800F0B280284621B09B
S1131360F0BD01238DF80B3000228DF80C208DF890
S11313700D308DF80E208DF808308DF809308DF879
S11313800A308DF816308DF814308DF815208DF84C
S11313900F208DF810308DF811308DF838300D9203
S11313A08DF82530444906918DF81C208DF82420B1
S11313B08DF81D308DF81E2002208DF81F008DF849
S11313C020308DF821308DF830308DF828208DF8BC
S11313D02F208DF829200C218DF82A108DF82B2030
S11313E08DF82C308DF82D308DF83D3003218DF89B
S11313F03C108DF84B308DF841108DF840208DF85D
S11314003F308DF83E308DF845008DF844308DF82E
S113141043208DF8421006208DF849008DF84820AD
S11314208DF847308DF8461024491E9120211D91D6
S11314308DF84C308DF84D208DF84E208DF84F20CE
S11314408DF850308DF854308DF853308DF852208B
S11314508DF851208DF868308DF869308DF86A3038
S11314608DF86B308DF86C308DF86D308DF87330ED
S11314708DF858301792189219928DF86E308DF8B5
S11314806F308DF870208DF871208DF872208DF8F2
S11314907C308DF87D308DF87E2002AE34463FE7F7
S11314A000210120FFF78CFB054600287FF456AF8E
S11314B042E700BF0040064000127A003487FF1F55
S11314C03146E078FFF70AFB0546002800F0238147
S11314D0FFF738FA022800F05881032800F05881F9
S11314E0012800F03281002D7FF438AF94F83030B9
S11314F013B1E26AA84B1A6094F8353053B1A74986
S11315000A6A22F0706294F834301B0603F07063A8
S113151013430B6294F84330002B40F0A68114F17E
S11315206C0F35D0236F002B32D0E36E83B30021D0
S11315309B489C4D01EB8102236F9B5C30F8133078
S11315409B0003F1804303F5CA231E6826F08046FE
S11315501E60236F9F189E5CBB781B0603F0E0633C
S1131560FA78D20002F0080213433A7902F0070233
S113157013437A78002A14BF4FF0804200221343A9
S113158030F8162045F822300131E36E9942D1D368
S113159094F84430C3B194F8463094F84720824913
S11315A0496821F47F6194F84500002814BF4FF482
S11315B0006000201B01DBB2120202F4E06213435C
S11315C00B430343784A536094F84830DBB194F8F2
S11315D04A3094F849207449096921F03F0194F88C
S11315E04C00084394F84B10002914BF0221002139
S11315F09B0003F00C030343120102F03002134377
S11316000B43694A136194F86030002B37D0664B62
S1131610196C21F0010194F861200A431A641B6CCF
S113162023F0020394F86220002A14BF022200224D
S113163013435D4A1364136C23F0040394F863208A
S1131640002A14BF042200221343574A1364136C64
S113165023F0080394F86420002A14BF082200220F
S11316601343514A1364136C23F0100394F8652058
S1131670002A14BF1022002213434B4A136494F827
S1131680503033B1494B626D1A60A26D5A60E26DFD
S11316909A6094F86630EBB1434A936E00209066EA
S11316A0516821F4805194F868301B0303F480538B
S11316B00B435360906694F867305BB194F86930DB
S11316C05B0003F00E0394F86A2042F08052134347
S11316D0354A936694F87430002B00F0E280344964
S11316E08B7803F07F0394F8752082F0010243EABB
S11316F0C213DBB28B7094F97630002BBCBF20335D
S11317005BB22B490A7903F01F0302F0E002134392
S11317100B71002522E604F11001607FFFF732F916
S1131720054600287FF4D4AE04F1200194F8280083
S1131730FFF7C2FA0546FFF705F9022825D003286A
S113174026D0012801D0002601E004F13606002D40
S11317507FF4C9AEF378032B2CD08DF80730B3781F
S11317608DF8063073788DF80530337820A800F8AA
S11317707C3DFFF715FC054600287FF4B4AEE11D5F
S1131780A07BFFF71DFA0546ADE604F13A06DEE755
S113179004F13E06DBE700BF3800002000400640AD
S11317A0E465000000500640008004403C00002036
S11317B000D0074094F828300BBB637F93BBE378D9
S11317C0002B42D10125002D7FF48DAEE11DA07BBD
S11317D0FFF7F6F9054600287FF485AEF3788DF817
S11317E00730B3788DF8063073788DF80530337888
S11317F020A800F87C3DFFF7D3FB054673E60623DB
S11318008DF8073002238DF8063001238DF805305A
S113181020A800F87C3DFFF7C3FB0546637F7BB13E
S11318200128D0D101238DF8073000228DF806203D
S11318308DF8053020A800F87C3DFFF7B1FB054684
S1131840E378002BBFD0012DBDD102238DF80730E2
S113185000238DF806308DF8053020A8012300F808
S11318607C3DFFF79DFB0546ADE704F13601012001
S1131870FFF7A4FA054600287FF470AD04F13A019D
S11318800220FFF79BFA054600287FF467AD04F1B8
S11318903E010320FFF792FA054600287FF45EAD6F
S11318A03DE600255AE500BF70B504460D461128F3
S11318B007D9232840F285804D2840F24F81042027
S11318C070BD11287AD8DFE800F00913191F242904
S11318D02E33383C41484F565D646B720020FFF74D
S11318E07DFB03460020002D00F0AA812B6070BD13
S11318F00120FFF773FB03460020F4E70220FFF703
S11319006DFB03460020EEE7FFF7B6FC034600201C
S1131910E9E7FFF7CDF803460020E4E7FFF740F9D5
S113192003460020DFE7FFF71FF803460020DAE74D
S1131930FFF7A0F903460020D5E7A84B1B68002059
S1131940D1E7FFF787FB03460020CCE70021042002
S1131950FFF7A2FB03460020C5E701210420FFF79F
S11319609BFB03460020BEE700210520FFF794FB04
S113197003460020B7E701210520FFF78DFB03464E
S11319800020B0E700210620FFF786FB0346002075
S1131990A9E701210620FFF77FFB03460020A2E709
S11319A000210720FFF778FB034600209BE7012175
S11319B00720FFF771FB0346002094E7002304206F
S11319C091E7A0F115040E2C00F29980DFE804F0F1
S11319D00814202B353E434F5A656D767F878F0060
S11319E07F4BDB68C3F30163022B00F28B807D4ADB
S11319F052F82330002024E0794BDB68C3F3816381
S1131A00022B00F28280774A52F82330002018E03B
S1131A10734BDB68C3F30173022B79D8714A52F814
S1131A20233000200DE06E4BDB689B0F022B72D835
S1131A306C4A52F82330002003E0FFF71DFC0346F4
S1131A400020002D00F0FC802B6070BDFFF78EFBA2
S1131A5003460020F5E7644B9B78DB0902D00023A2
S1131A601846EEE7FFF7E6FB03460020E9E75E4B86
S1131A709B78DB0952D15A4B1B6913F0010350D1F7
S1131A800020DEE7584B9B78DB094ED1544B1B6991
S1131A9013F002034CD10020D3E7534B9B78DB09AE
S1131AA04AD14FF4FA330020CBE74D4B1B6CC3F300
S1131AB00013002B43D14FF48070C2E7484B1B6CDA
S1131AC0C3F3C003002B3DD14FF48070B9E7444BFE
S1131AD01B6CC3F38003C3BB4FF48070B1E7404B6E
S1131AE01B6CC3F340039BBB4FF48070A9E73C4BD2
S1131AF01B6C13F001032ED14FF48070A1E7002377
S1131B0004209EE7002318469BE70023184698E725
S1131B100023184695E70023184692E70023184649
S1131B208FE74FF47A7300208BE70023184688E789
S1131B304FF4FA43002084E70023184681E700238A
S1131B4018467EE7002318467BE70023184678E70B
S1131B500023184675E70023184672E7242805D8A1
S1131B6004200023002D6BD02B6070BDA0F1330343
S1131B70DBB21A2B07D81D4A22FA03F313F0010F24
S1131B8018BF0420EDD11A4B33F81420194B53F825
S1131B90223013F0804F42D14FF48070E1E70120EE
S1131BA0FFF71CFA002845D100234FF48070D9E7D1
S1131BB00020FFF713FA0028F6D03BE00220FFF7DD
S1131BC00DFA0028F0D035E016F0080F14D116F005
S1131BD0100F19D100234FF48070C3E738000020A0
S1131BE0008004403C00002000D007404121000454
S1131BF0E46500000050064000212046FFF7DEFAAD
S1131C00034616F0100F04D001212046FFF7D6FA40
S1131C100346002B14BF00204FF48070A2E7094B49
S1131C201E5D16F0200FBAD116F0400FC0D116F089
S1131C30800FC3D116F0180FC6D10023184691E7C0
S1131C4070BD00BF8067000010B4054C2060217196
S1131C50A2602373637300205DF8044B704700BFD8
S1131C6048000020F0B583B007460E468DF8040006
S1131C708DF8051001F046FD334B1C7B5C7301238A
S1131C808DF80630002C4AD000242F4D04E0013496
S1131C90E4B22B7BA34242D9AB6853F82430002B27
S1131CA0F5D01A79022AF2D01A68996801A89047E7
S1131CB00028ECD06C73002EE9D140F20315002308
S1131CC08DF80630A400204E20E00134E4B23B7BC2
S1131CD0A34212D9BB6853F82430002BF5D01A79EB
S1131CE0012AF2D01A68996801A890470028ECD01C
S1131CF07C73002EE9D14FF4827501F0F5FC28467F
S1131D0003B0F0BD043C14F1040FF6D0B3681B59C2
S1131D10002BF7D01A68996801A89047F2E70A4D9A
S1131D202B6853F82700FFF7F3FA6F710546002874
S1131D30C5D102238DF80630034B1B7B002BDCD06E
S1131D400024014FC6E700BF4800002008B5FFF794
S1131D50ABFD08BD10B4064B1B6853F8204061600E
S1131D6053F820309A6000205DF8044B704700BFA0
S1131D705C00002008B5084B1B6853F8203000F0C5
S1131D800F00064A1077D07723B15A6812B1197B35
S1131D909868904708BD00BF5C00002000800040A8
S1131DA038B5054600F00F0400222146094800F02A
S1131DB041F9094B1B6853F8253053B1054A147790
S1131DC0D477947701221A735A6812B1197B9868F0
S1131DD0904738BD008000405C0000202DE9F04FA2
S1131DE087B09DF84070119D0124BC405FFA84FCCB
S1131DF0B5FBFCF60CFB1656002E14BF4FF0010A7F
S1131E004FF0000A03D0504607B0BDE8F08F0593A9
S1131E1004920391804600F00F06DFF800913146EA
S1131E20484600F00CF9D9F8003023F08003C9F8D3
S1131E300030730103F1804202F5004B02F51042B9
S1131E40049810604B4441F2100205989850019791
S1131E50009700231A463146484600F015F9039BC3
S1131E60032B12D8DFE803F0022D3D4C002241F28F
S1131E7004032BF8032064B2A4B2730103F180437A
S1131E8003F5004341F214029C52244C2A46314685
S1131E90204600F011F901223146204600F03AF9BB
S1131EA004EB461641F21C02B35A1BB243F0020380
S1131EB09BB2B3521A4B1B6853F8283000221A7392
S1131EC0A1E764B2A4B241F204032BF80340730106
S1131ED003F1804303F50043002141F214029952B7
S1131EE0D3E764B2A4B241F204032BF803407301B4
S1131EF003F1804303F5004341F214029C52C4E70A
S1131F00002241F204032BF80320730103F1804300
S1131F1003F5004341F214015A52B6E70080004031
S1131F205C00002070B582B00446079D01959DF8C1
S1131F3018500095FFF752FF054610B1284602B02D
S1131F4070BD04F00F040F4E089A2146304600F08D
S1131F50E1F806EB441641F21C03F35A23F008039C
S1131F601B041B0C9DF82420002A14BF0822002205
S1131F701343640104F1804404F5004441F21C025B
S1131F80A352DBE70080004008B5012200F00F01F6
S1131F90024800F04FF8002008BD00BF0080004058
S1131FA008B5002200F00F01024800F043F80020B9
S1131FB008BD00BF0080004000F00F0080304001E9
S1131FC0014B1950704700BF0080004008B50A4615
S1131FD000F00F01014800F09DF808BD00800040AA
S1131FE008B500F00F01024800F0C3F808BD00BFB7
S1131FF00080004000F00F00430103F1804303F52B
S1132000004341F21C029B5A23F008031B041B0CDF
S1132010002914BF082200221343400100F180402C
S113202000F5004041F21C0283527047004870479B
S1132030008000400AB981767047C176704700EB92
S11320404111002341F208028B5001F580521360C4
S113205041F204028B5241F206028B5241F20C020D
S11320608B5041F210028B5041F214028B5241F218
S113207016028B5241F218028B5041F21C028B5211
S113208041F21E028B52704710B4DB00DCB29DF8A3
S1132090083003F00703234343EAC2239DF80420D6
S11320A0120202F4E06213439BB2803100EB41114F
S11320B0CB805DF8044B7047036813F0800F13D096
S11320C010B400EB411341F208041B59002B11DB3F
S11320D000EB41131B5913F0804F0BD122F0404207
S11320E000EB4110025112E000EB411041F20803F1
S11320F0C250704700EB411041F20801435823F4E9
S11321007F7323F00303C2F309021A4342505DF8BC
S1132110044B704710B400EB411441F21E03E35A20
S113212013F4004F14D100EB411141F21E000B5A7D
S1132130C2F30E0203F4004313430B5241F21600A0
S11321400B5A03F400431A430A525DF8044B7047D8
S113215041F21E00235AC2F3080203F47E431343E0
S1132160235241F21600235A03F47E431A432252A7
S1132170EBE700EB411241F21E03D35A13F4004F74
S113218007D100EB411041F21603C05AC0F30E0010
S1132190704741F21603D05AC0F30800704708B5DF
S11321A00020FFF7E7FD08BD08B50120FFF7E2FDB9
S11321B008BD08B50220FFF7DDFD08BD08B5032002
S11321C0FFF7D8FD08BD08B50420FFF7D3FD08BD0F
S11321D008B50520FFF7CEFD08BD08B50620FFF7BA
S11321E0C9FD08BD08B50720FFF7C4FD08BD08B543
S11321F00820FFF7BFFD08BD08B50920FFF7BAFDA9
S113220008BD08B50A20FFF7B5FD08BD08B50B20C9
S1132210FFF7B0FD08BD08B50C20FFF7ABFD08BD06
S113222008B50D20FFF7A6FD08BD08B50E20FFF781
S1132230A1FD08BD08B50F20FFF79CFD08BD38B50A
S11322400020FFF7F3FEC56A002404E06D080134A2
S1132250E4B2102C06D015F0010FF7D02046FFF79A
S11322609FFDF3E738BD00002DE9F04186B00C4630
S113227016469846234B53F82050234B53F82070AE
S1132280384600F09DFD844205D34FF44073184650
S113229006B0BDE8F08105EBC4056B790BB10223F0
S11322A0F5E71F2C04D804F01F02012393403B637D
S11322B002236B719DF83430AB71F37AEB71736860
S11322C0049333788DF80C30337A8DF81430737AA4
S11322D08DF81530B37A8DF81630F37A7BB11C2360
S11322E002930C9B0093434602AA2146384600F011
S11322F0CFFF03460028CAD000226A71C7E70C2327
S11323000293EEE760000020D06700002DE9F84357
S11323100D46174698461B4B53F820401A4B53F86A
S11323202060204600F04CFD854204D34FF44073F6
S11323301846BDE8F883236813F0005F09D0636B87
S1132340C3F303635B0007339D4202D84FF4407329
S1132350EEE706EBC50999F805300BB10223E7E770
S1132360012289F8052046F8357089F80680294647
S1132370204600F0A7FE03460028D9D0002289F8A1
S11323800520D5E7D0670000600000202DE9F04368
S113239083B005460F4690463D4B53F820603D4BB5
S11323A053F8204094F81131012B06D0637913B30C
S11323B00223184603B0BDE8F0836379DBB2032B34
S11323C0F4D1B36A326B134013F0200F02D100230F
S11323D06371EBE7304600F0A0FE01233363D6F8C7
S11323E08C30B36A326B134013F0200FF7D13046B0
S11323F000F086FEEBE7336813F0005F01D10123A0
S1132400D7E74FF0010984F8059084F80680276027
S11324104A460621304600F055FE4A46072130461A
S113242000F050FE4A460521304600F04BFE94F879
S113243011314B4501D00023BBE72A46164994F8D5
S11324401001FFF787FC18B1002363714B46B0E716
S1132450236894F81001102201920221009106F1E0
S11324608002FFF7BBFC18B1002363710123A0E7CE
S1132470012194F81001FFF7BDFD94F81001FFF756
S113248083FD0346002894D000236371012390E761
S1132490D0670000600000203D25000070B50646AE
S11324A0244B53F8204094F8113113B36379DBB211
S11324B0032B30D0256894F81001FFF771FD2B68C9
S11324C013F4001F02D16A68920C6A60C3F30343D9
S11324D085F84830AB681BBAAB60EB681BBAEB609D
S11324E0D4F80051BDB12346002208213046A84744
S11324F011E0114B53F8205000220521284600F02A
S1132500E1FD00220621284600F0DCFD002207211F
S1132510284600F0D7FD00232360A37933B96379FB
S1132520DBB2032B1CBF0023637170BD201D02F0BE
S113253041FAF4E760000020D067000038B5044693
S1132540012903D0E0B2FFF7A9FF38BD064B53F8C9
S1132550203003225A71D3F80051002DF2D000220A
S11325600921C0B2A847EDE76000002038B50C4649
S11325700A4B53F820500022094B53F8200000F076
S1132580A1FDE1006C18A37913B90023637138BD70
S1132590081D284402F00EFAF7E700BF600000208F
S11325A0D067000038B50D46094B53F8204020464B
S11325B000F0B3FD3DB1236843F48033236020462B
S11325C000F09EFD38BD236823F480332360F6E7D2
S11325D0D0670000F8B50E4615461F46414B53F828
S11325E02040204600F099FD236803F07F039D42BC
S11325F001D81F2D05D9204600F082FD4FF440700C
S1132600F8BD236813F0005F15D15EB9364B03EAB9
S1132610874705F5087544F82570204600F070FDDD
S11326200020F8BD012EF8D127F0604705F50875A4
S113263044F82570F1E7636BDB0D03F01E030733E9
S11326401F2B28BF1F239D4212D82368C3F30123E5
S1132650022B2BD0032B39D0012B1BD03A4600215F
S1132660304600F07DFB05F5087544F82500D4E7F5
S11326703EB91D4B03EA874705F5087544F82570F4
S1132680CBE7012EC9D127F0604705F5087544F85A
S11326902570C2E73A460121304600F061FB40EA6A
S11326A0104005F5087544F82500B6E73A460221BE
S11326B0304600F055FB030C43EA1063034343EA3E
S11326C0102305F5087544F82530A6E73A4603219A
S11326D0304600F045FB05F508754FF0FF3344F82C
S11326E025309AE7D06700000000FC1F2DE9F04771
S11326F0814688461746A54B53F820402368002B93
S113270005DB204600F009FD204600F084FB6268EA
S11327107B7A5B0303F4005322F400521343636097
S1132720204600F063FB204600F0F7FC204600F052
S11327307FFB236823F400633A7A002A40F0108177
S11327402360226D22F00042002311E1636B23F425
S11327508053002A14BF4FF4805200221343636352
S1132760BB79022B03D0236843F4003323607B79C5
S1132770002B40F0B48097F83430012B00F0B8807F
S113278097F834301BB9236823F400432360F979A4
S1132790204600F047FD3968204600F0EDFE024671
S11327A0002840F0EF80236813F4006F00F0A98044
S11327B0FB6838697E69BD69FA69216D01F00041E1
S11327C02165216D9B029BB2400100F478700343A4
S11327D006F01F0633436E4800EA45552B431204A6
S11327E002F4F81213430B4323653B6A786ABE6A0A
S11327F0FD6A3A6BD4F804CC66490CEA0101C4F8CA
S1132800041CD4F8041C9B0203F4F8434001C0B236
S1132810034306F0070633435F4800EA05552B439C
S1132820120402F4E02213430B43C4F8043CB979C4
S1132830204600F0C8FCBB79032B02D0204600F0F0
S11328405FFC564B13F9090010F1800F01D000F022
S113285031FF534B13F9090000F02CFF514B13F9CE
S1132860090000F027FF504B13F9090010F1800F05
S113287001D000F01FFF4C4B4B4493F9030010F1BF
S1132880800F01D000F016FF08F1040A5446002519
S11328902E463146204602F0A0F8024600284FD1C9
S11328A0A67044F8046C08EBC5035E710135083466
S11328B0202DEED197F8343088F8113197F835305F
S11328C088F810310023C8F80031C8F80431C8F87A
S11328D00831C8F80C31354B43F8298052E0397976
S11328E0204600F0D9FA024600283FF444AF49E0FC
S11328F0236813F0005F2FD0236843F40043236060
S11329003EE7FB6838697D69BE69FA69616821F050
S113291007010904090C6160616803F0070343EAD5
S113292006632D0405F4E0252B43C00400F4601075
S11329300343920502F4400213430B43636076E7BA
S113294065B10024504602F052F801340AF1080A35
S1132950AC42F7D1012215E0012213E0012211E07B
S113296043F400632360226D22F000424FF00043E1
S11329701343236523683A7AC3F3C0239A423FF48E
S1132980E5AE01221046BDE8F08700BFD067000025
S11329900000E07F188308C00000F03FEC670000EF
S11329A0E0670000DC670000E467000060000020CE
S11329B010B586B00D4C54F8200054680494147873
S11329C08DF80C40947A8DF81640147A8DF81440E2
S11329D0527A8DF8152006AA082442F8104D0024D6
S11329E0009400F055FC06B010BD00BFD067000095
S11329F070B582B00E460A4C54F82050002401945D
S1132A00069C0094FFF730FC034610B1184602B050
S1132A1070BD01223146284600F054FB0346F5E719
S1132A20D067000070B584B00D461E46164C54F8AD
S1132A3020405068029010788DF80400127A8DF8C6
S1132A400C2004AA0F2042F8100D204600F0E0FCF0
S1132A50034610B1184604B070BD04AA002342F81E
S1132A60103D33462946204600F0D2FC0346002898
S1132A70F0D104AA042342F8103D334629462046E7
S1132A8000F0C6FC0346E5E7D067000070B50D46CC
S1132A901646074B53F82040204600F03EFB3246D2
S1132AA02946204600F022FA204600F029FB70BD9A
S1132AB0D067000008B50023FFF728FC08BD08B55F
S1132AC00022FFF763FC08BD10B5074B53F8204004
S1132AD0064B53F82020D2F808310BB10A2198474D
S1132AE0204600F03BFB10BDD067000060000020D2
S1132AF0F8B5184B53F82040236813F4804F28D0BE
S1132B000546154B53F82060D4F8083B13F4003FF6
S1132B100CD0D4F8083B43F40033C4F8083BD6F88F
S1132B2000711FB1334600220521B847D4F8083B91
S1132B3013F4803F0DD0D4F8083B43F48033C4F839
S1132B40083BD6F8004124B133460022062128462A
S1132B50A047F8BDD0670000600000202DE9F041D7
S1132B6094B00546694B53F82040A36A226B134086
S1132B7003F00103002663B90136202E00F0B08073
S1132B80A36A226B134006F01F02D34003F0010333
S1132B90F1E7002B00F0A4805D4B53F82570236807
S1132BA013F0005F01D0072E0FD907EBC6035B7942
S1132BB0DBB2012B41D007EBC60898F80530DBB235
S1132BC0022B5DD014B0BDE8F081052E10D0062E86
S1132BD026D0072EEFD180232363D7F80081B8F1E4
S1132BE0000FE8D03B46002203212846C047E2E715
S1132BF07B79DBB2012BDED13968204600F0B8FACC
S1132C002846FFF74BFC20232363D7F80081B8F153
S1132C10000FD0D03B46002201212846C047CAE716
S1132C2040232363D7F80081B8F1000FC3D03B469B
S1132C30002202212846C047BDE73146204600F065
S1132C4096FC57F836203146204600F045FC002813
S1132C50B1D1A36831462846FFF788FC1F2E04D85B
S1132C6006F01F02012393402363D7F80081B8F1D3
S1132C70000FA0D03B46324600212846C0479AE7C1
S1132C8031462846FFF772FC98F8073083B91F2EA7
S1132C9004D806F01F02012393402363D7F80041B0
S1132CA0002C8FD03B46324604212846A04789E7B2
S1132CB03146204600F05BFC01AA3146204600F074
S1132CC00BFCA3689DF8073003F00F03042BE5D138
S1132CD01F2EE3D806F01F02012393402363DDE790
S1132CE065B9D4F8083BD4F8082B5B0C43EA1243CB
S1132CF013F0010F02D00020FFF7FAFEE369002B66
S1132D003FF460AF2846FFF7DFFE5BE7D0670000C3
S1132D1060000020034B53F82030C3F80011C3F8BF
S1132D200421704760000020082817D909380628B4
S1132D3013D8DFE800F00406080A0C0E10000C207B
S1132D4070471020704714207047182070472020C7
S1132D5070473020704740207047002070470000C3
S1132D60012914D021B1022920D00023184670472C
S1132D7002F0404330B10128F8D1520022F0404221
S1132D801343F3E70C4901EAC2421343EEE702F0AE
S1132D90404330B10128E9D1084901EA0242134312
S1132DA0E4E7054901EAC2421343DFE7012801D9F8
S1132DB00023DBE71306D9E70000F83F0000FF3FDC
S1132DC00346084A904209D002F58052904207D047
S1132DD00020054A934208BF102070472020F8E7DE
S1132DE0102070470040024000B00240036813F412
S1132DF0801F0FD0036823F000430360036823F0AF
S1132E0080430360036823F080530360036813F076
S1132E10006FFBD170470368002B07DB036843F0A6
S1132E2000430360036813F4801FFBD07047000065
S1132E3070B50446036843F000730360236813F01D
S1132E40007FFBD1236843F4805323602046FFF7BF
S1132E50B7FF04F18001860007D00B4601EB860121
S1132E60002543F8045B8B42FBD104F5086230B1C2
S1132E7013463244002143F8041B9A42FBD14FF01D
S1132E80FF3323616361A3610022A2622363014BC8
S1132E90236270BD06003B0038B504460D46FFF7BB
S1132EA08FFF0146236803F40063002B14BF012045
S1132EB000201AD1236843F000532360626B2B0671
S1132EC003F0706322F07062134363634FF0FF33C7
S1132ED0A36489B249B100236FF0604503F5087219
S1132EE044F8225001338B42F8D138BD2DE9F0412A
S1132EF000F1E003446BC4F30364032900F2DC80B3
S1132F00DFE811F004002E007E00D600016821F4F1
S1132F10407101600134E40000F0CE80114602EB00
S1132F20C402664E08E04C6806EAC4442C441C60A3
S1132F30083104338A4211D0087800280CBF0025D8
S1132F404FF0004548780028EDD04868400020F054
S1132F50404045F0804420441860E9E7BDE8F08132
S1132F60016821F4407141F4807101600134E4008E
S1132F7000F0A280154602EB0412504F504E43F667
S1132F80F87411E0696807EAC1414144196024E01A
S1132F901868DEF80C1004EAC101614401431960A9
S1132FA010350433954229D0AE46297800290CBF48
S1132FB04FF000084FF00048297A00290CBF4FF069
S1132FC0000C4FF4004C69780029DBD0686806EAED
S1132FD0400048F08041014419609EF8091000291E
S1132FE0D6D0D3F80080DEF80C00C0F3CD304CF41A
S1132FF08041014441EA08011960D1E7BDE8F0814C
S1133000016821F4407141F4007101600134E4006D
S113301052D0104602EB441220E01C684568ED08CB
S113302044EA05641C6023E01D68CC68640304F46E
S11330307F042C431C6025E01D684C69640104F482
S11330407F442C431C6027E01C68C969C1F3C70195
S11330502143196020300433904227D0014644783C
S1133060002CDAD01C6845686D0D44EA05641C60C8
S11330704C7A002CD8D01D68CC68640904F47F0411
S11330802C431C604C7C002CD6D01D684C69640B0E
S113309004F47F442C431C604C7E002CD4D01C6868
S11330A0C969C1F3475121431960D3E7BDE8F081F1
S11330B0036843F440730360BDE8F0810000F83F07
S11330C00000FF3F036803F07F038B4207D24FF4F5
S11330D040707047836A19438162002070471F293A
S11330E00CD801F01F01012303FA01F1002AF1D1E8
S11330F0836A23EA0101816200207047002070473F
S1133100036823F080530360036823F08043036063
S1133110036813F0807FFBD17047036843F080435A
S11331200360036843F0805303600368002B0EDBE5
S11331300122036813F0807FFBD03AB9036843F09F
S113314000430360036813F4801FFBD070470368D7
S113315023F0004303600022EBE70000026A034B04
S1133160134013B1014B0362036A704706003B002E
S1133170F8B507460E4600F1880401F10805D0F8B9
S11331808000C0F30340FFF7CFFD86F84800D7F86E
S11331908030336013F4001F10D0D7F8843073608C
S11331A00646002348B1990854F8212012BA45F87C
S11331B021200433B342F6D3F8BDF8BDD7F88430E8
S11331C09B0C7360ECE708B504292AD8DFE801F00A
S11331D00B181D030600FFF7A0FF08BD036843F0AA
S11331E00043036008BD036823F4000303604368DD
S11331F023F008034360436823F48053436008BD0D
S1133200436843F00803436008BD436843F48053B4
S11332104360436823F008034360036823F40033E6
S1133220036008BD036813F4006F07D0D0F8003CB6
S113323023F4403343EA0141C0F8001C704703689B
S113324013F4006F09D0D0F8000CC0F30140033030
S1133250012303FA00F0C0B270470820FBE738B539
S113326004460D46FFF7EBFF0830C0B24FF400737D
S1133270B3FBF0F3DBB2B5FBF3F203FB12538008AC
S1133280D20100FB0320203004EB800038BD000095
S11332902DE9F8430746894614469846089DFFF7EA
S11332A0DEFF3B6803F07F03994500F2A3800646E6
S11332B03B6813F0005F0FD07B6BC3F303635B00C9
S11332C00733994508D84FF44070BDE8F8837B6B09
S11332D04FF44070BDE8F8833B6813F4006F07D0E7
S11332E0A37B2BB1D7F8003C43F00043C7F8003C64
S11332F0D4F808905FFA89F3402B9ABF424AD05C15
S1133300FF20074665B3FFF70FFD39F003030DD027
S1133310002399088A00083255F8211009BAB150DF
S11333200433A26822F003029A42F2D806F108019B
S1133330A26893420AD21D4483F0030215F801CB1C
S113334001F802C00133A2689A42F5D805468242C8
S113335006D282F00303607BC8540132AA42F8D13A
S11333600023336073602379012B2FD0002322794B
S11333706AB9736823F0FF5323F4E013736072682F
S1133380224B03EA884848EA0202726000233F04A1
S113339007F470273B4322680F2A28D01C2A08BF51
S11333A043F4801323F07063217BD9B1120602F039
S11333B0706242F000421343A27B0AB143F080439F
S11333C03268134333600020BDE8F883736803F068
S11333D060437360726828F06043134373604FF472
S11333E00013C4E7120602F070621343E4E70020FE
S11333F0BDE8F8833B6813F0005F7FF468AF4FF4D7
S11334004070BDE8F88300BFF06700000000FC1FB7
S1133410F8B504460E4615461F46FFF720FF2368FD
S113342003F07F039E423FD8236813F0005F46D128
S11334300023036043602B79012B21D02B797BB9C6
S1133440036823F4C0030360436823F0FF5323F4A9
S1133450E013436042681F4B03EA8743134343600E
S11334602B680F2B1ED0036823F07063036002687F
S11334702B681B0603F07063134303600020F8BD40
S1133480036843F400130360036823F480030360B8
S1133490436803F060434360426827F0604313438A
S11334A04360CBE70020F8BD236813F0005F03D02E
S11334B0636B4FF44070F8BD4FF44070F8BD636B1C
S11334C0C3F303635B0007339E42B1D84FF44070EB
S11334D0F8BD00BF0000FC1FF8B507460E461546B0
S11334E0FFF7BDFE04460068C0F30340FFF71CFC71
S11334F085F848003B6813F0005F2FD07B6BC3F363
S113350003635B0007339E4228D84FF44070F8BD34
S113351063686B6030F0030608BF00230CD00023FF
S113352003F0FC0202F10801615809BA2A449160CF
S11335300433DBB2B342F3D383420DD2D91D294401
S113354083F003020832A25C01F8012F0133DBB2DD
S11335509842F5D10020F8BD0020F8BD23682B6007
S113356013F4001FD4D163689B0C6B60D2E708B5D9
S1133570FFF775FE036808BD2DE9F84306460F46BC
S1133580FFF75DFE04467D1E29463046FFF767FEC1
S11335902044083006F52073984203D94FF4407054
S11335A0BDE8F883A0463046FFF70AFC874206D9F7
S11335B04FF44070BDE8F8830020BDE8F883336819
S11335C023F07F0305F07F051D433560316811F05A
S11335D000511CD1002FEFD000252C4608F108091A
S11335E03046FFF73CFE04604460B8F1000F06D09B
S11335F000F10803484403F8014B9842FBD101351C
S1133600EDB22946AF42EBD80020BDE8F883002094
S1133610BDE8F88308B50020FFF7A0FA08BD08B597
S11336200020FFF751FA08BD08B50020FFF760FA43
S113363008BD08B50020FFF791FA08BD08B50020C1
S1133640FFF78CFA08BD08B50120FFF787FA08BD1B
S113365008B50120FFF738FA08BD08B50120FFF7C7
S11336607DFA08BD08B50220FFF778FA08BD08B551
S11336700220FFF729FA08BD08B50220FFF76EFA09
S113368008BD000072B110B4144600F11003084ADA
S113369052F8233023601030054B43F820105DF8B6
S11336A0044B70471030024B43F82010704700BFA2
S11336B00080FF1F420900F01F00012303FA00F0FD
S11336C0014B43F82200704700E100E0430900F099
S11336D01F00012202FA00F02033024A42F82300BC
S11336E0704700BF00E100E0054B1B68002B04DDC0
S11336F0013B034A1360002B00DD704762B6FCE710
S11337006C00002072B6024A1368013313607047DC
S11337106C00002070B582B006460C46264D05EBC1
S113372080014520FEF712FB002002A941F8040D98
S1133730FEF70CFB55F82620019B03EB5203B3FB69
S1133740F2F213461D48816841F0020181602AB1FA
S1133750013B00BF00BF00BF002BF9D117498B68A4
S113376023F002038B601346886840F001008860F0
S11337702AB1013B00BF00BF00BF002BF9D1217863
S11337800E4B9A6822F008029A609A68002914BFC6
S1133790082300231A43094B9A6061789A6822F03F
S11337A004029A609B68002914BF04220022134378
S11337B0024A936002B070BD7000002000700340A4
S11337C0024A536919435161704700BF00700340B6
S11337D0F8B506460C461746244D05EB80014520F6
S11337E0FEF7B4FA55F82600214A0023A0FB07018E
S11337F0FCF734FE10F1FF3641F1FF37230103F1EA
S1133800804303F55C339B6AC3F38103012B20D00F
S1133810022B24D1012F08BF002E12D30120F8BDA2
S1133820144A0023BB4208BFB24210D3002F08BF82
S1133830B6F5803F05D3B0F1011006044FF6FF72D0
S11338401643023424010C4B1E510020F8BD012004
S1133850F8BD012F08BF002EE2D30120F8BD012FCF
S113386008BF002EEDD30120F8BD00BF700000207A
S113387040420F00FEFF01000070034030B583B0EA
S113388030238DF8043031238DF8053032238DF840
S1133890063033238DF807300D4659B9D37C002BFD
S11338A040F0AC80564B996A21F002019962996A02
S11338B000230EE0D47C0B0103F1804303F55C3359
S11338C0996A21F002019962996A002C14BF0223BB
S11338D00023144619432B0103F1804303F55C33A1
S11338E099621278996A21F00C019962996A92009E
S11338F002F00C020A439A626378012B68D0616873
S1133900AB1C1B013E4AD150227A2B0103F18043A8
S113391003F55C33996A21F400019962996AD2052E
S113392002F400020A439A62E268996A21F0706123
S11339309962996A120602F070620A439A62217CC3
S11339409A6A22F480229A629A6A002914BF4FF478
S1133950802300231A432B0103F1804303F55C33D6
S11339609A62617C9A6A22F400329A629A6A002905
S113397014BF4FF4003300231A432B0103F1804397
S113398003F55C339A62A17C9A6A22F480329A62CB
S11339909A6A002914BF4FF4803300231A432B0181
S11339A003F1804303F55C339A62237DC3B9144960
S11339B00B690122AA4023EA02030B6102AB1D44F6
S11339C015F9040CFFF782FE0023184603B030BD3E
S11339D062682946FFF7FCFE03460028F5D193E709
S11339E0074A11690123AB400B43136102AB1D4429
S11339F015F9040CFFF75EFE0023E6E70123E4E774
S1133A0000700340014BD960DB68704700700340CD
S1133A1010B50F4B53F820301C7C0CB1022010BDA4
S1133A200C4C54F8200019609A6001221A74022286
S1133A30DA85836943F400238361836913F4002FD7
S1133A40FBD00122044900F064FC002010BD00BF3B
S1133A50740000203468000017000300F0B585B03E
S1133A601B4B53F82040237C13B1022005B0F0BD5A
S1133A7013460A460646174951F82050226000278B
S1133A80A760012121740220E08594F82A000391A3
S1133A9002930191009705F11C03FEF743FA3246A5
S1133AA00D4994F82A00FEF755F994F82A00FEF718
S1133AB06BFAAB6943F40023AB61AB6913F4002FD9
S1133AC0FBD02B6943F400032B610020CEE700BF39
S1133AD07400002034680000A53B000038B5144B86
S1133AE053F82040134B53F82050EB8D9BB2022B1C
S1133AF016D000221049204600F00BFC00220F498A
S1133B00204600F006FCA36923F40023A361A36903
S1133B1013F4002FFBD100232B74AB7C1BB938BDED
S1133B200023EB85EAE705F12C0000F043FFF6E7FC
S1133B30346800007400002017000300160003001E
S1133B4038B5154B53F82040144B53F820502369D3
S1133B5023F40003236195F82A00FEF721FA0022DA
S1133B600F49204600F0D5FBA36923F40023A36189
S1133B70A36913F4002FFBD1AB7C43B9EB8D9BB24B
S1133B80022B04BF0023EB8500232B7438BD05F101
S1133B902C0000F00FFFF1E73468000074000020EF
S1133BA01600030038B5194B53F82040184B53F84E
S1133BB0205001290DD0236A1BB1626A01212046DD
S1133BC09847A3688BB901221249284600F0A1FB4B
S1133BD038BD0123E385FFF7B3FF236A002BF7D039
S1133BE0626A03212046984738BD216894F82A0068
S1133BF0FEF7E2F9A16894F82A00FEF7E7F900233A
S1133C00A36094F82A00FEF7BFF938BD74000020C1
S1133C10346800001600030008B50E4B53F820303A
S1133C200D4A52F820001A681B7D43B1012B09D0BC
S1133C301378517843EA012100F042FB08BD137860
S1133C40037708BD1378517843EA012100F02DFB76
S1133C5008BD00BF740000203468000038B5154B5F
S1133C6053F82050144B53F82040A36923F48023C5
S1133C70A361A36913F4802FFBD10021204600F037
S1133C80C9FBE36900220D49204600F042FBEB7CAE
S1133C9043B900236B742B8E9BB2022B04BF002309
S1133CA02B8638BD05F12B0000F084FE0023EB7455
S1133CB0EFE700BF74000020346800001500030023
S1133CC038B5164B53F82040154B53F82050A369D0
S1133CD023F48023A361A36913F4802FFBD1002173
S1133CE0204600F097FB236923F400132361E36962
S1133CF095F82900FEF754F9EB7C43B92B8E9BB25F
S1133D00022B04BF00232B8600236B7438BD05F1FE
S1133D102B0000F04FFE0023EB74EFE73468000043
S1133D207400002010B582B0134B53F82030134AAE
S1133D3052F820005C681B7D73B1012B0FD00DF18C
S1133D40060100F0D7FABDF806302370BDF806303E
S1133D501B0A637002B010BDC3692370FAE70DF14A
S1133D60060100F0BEFABDF806302370BDF8063037
S1133D701B0A6370EEE700BF740000203468000083
S1133D8010B5074B53F8203000249C7493F8283066
S1133D90012B02D0FFF762FE10BDFFF739FE10BD04
S1133DA07400002038B50C4B53F8204089B10D46FF
S1133DB0227C62B194F82820012A05D094F82A00C4
S1133DC0FEF70EF9286004E0A2680A6001E0002210
S1133DD00A60E08D80B238BD74000020314B53F886
S1133DE020303BB11A7C0AB1022070475B7C0BB1D6
S1133DF0022070472DE9F04182B00C462A4B53F85B
S1133E00205001A9294B185CFDF7A0FF019E4FEA41
S1133E10840CB6FBFCFC1FFA8CFC4FEA8C07B6FB47
S1133E20F7F7BC4206D23F1B04EB840105224FF096
S1133E30040805E0E71BF7E721440132212A12D0E8
S1133E409646B6FBF1F083B202FB03F3B6FBF3F341
S1133E509C4234BF1B1BE31ABB42EDD81FFA80FC03
S1133E601F469046E8E7B8F1070F03D82B6943F4DF
S1133E7000332B612A6922F0F85208F1FF331B0644
S1133E8003F0F85313432B612B6923F4FF5323F0FE
S1133E901F03CCF30C0C4CEA03032B61002002B08B
S1133EA0BDE8F08174000020346800004068000020
S1133EB0F0B583B006460C461546304B53F82070D7
S1133EC001A92F4B185CFDF741FF631E04F1330178
S1133ED0002203F8012F8B42FBD12A4B43F82640E2
S1133EE0EB7984F82830AB7923752B7A84F8293060
S1133EF06B7A84F82A30384600F09EF929683046F7
S1133F00FFF76CFF2B7983B30122A979384600F0BF
S1133F10A5F92979384600F0B9F93B696A7923F49F
S1133F20005343EA42333B610025E5852586294653
S1133F3004F12B0000F051FD0746294604F12C0042
S1133F4000F04BFD012F16D001280CD00E4B9C57CE
S1133F502A460E4B53F826102046FFF793FB2046C3
S1133F60FFF7A8FB284603B0F0BD0022A979384624
S1133F7000F074F9CDE73846F5E700BF3468000077
S1133F80406800007400002044680000D487FF1FCC
S1133F90F8B506469B4B53F820409B4B53F82050F2
S1133FA09A49204600F012FA80B340F201632B864E
S1133FB095F82830012B25D03046FFF781FEAB69F8
S1133FC01BB1EA69032128469847636923F0C0239B
S1133FD023F4F81343F4702363618D49204600F001
S1133FE0D0F900287BD18B49204600F0CAF900287B
S1133FF040F0A9808849204600F0C3F9002840F029
S1134000DE80F8BD3046FFF729FED8E78349204615
S113401000F0DCF9E0B140F203632B8695F8283018
S1134020012B11D03046FFF74BFEAB691BB1EA6997
S1134030032128469847636923F0C02323F4F81327
S113404043F470236361C8E73046FFF707FEECE7EB
S11340507349204600F0BAF9E0B140F204632B86BC
S113406095F82830012B11D03046FFF729FEAB69B3
S11340701BB1EA69032128469847636923F0C023EA
S113408023F4F81343F470236361A6E73046FFF783
S1134090E5FDECE76349204600F098F9E0B140F211
S11340A005632B8695F82830012B11D03046FFF795
S11340B007FEAB691BB1EA69032128469847636987
S11340C023F0C02323F4F81343F47023636184E7DB
S11340D03046FFF7C3FDECE7534B63617DE753497B
S11340E0204600F073F900283FF47DAF464B53F8A7
S11340F026503046FFF716FE2B7DEBB96B68013373
S11341006B60EB68013BEB60EB682BB9AB691BB1EF
S1134110EA69002128469847EB68002B7FF463AFD7
S11341203046FFF79BFDAB69002B3FF45CAFEA69B7
S113413002212846984756E76B6802336B60EB68A8
S1134140023BEB60E0E73A49204600F03FF90028E3
S11341503FF450AF2C4B53F82650AB68002B3FF480
S113416049AF284B53F826703046FFF755FD2B7D99
S1134170F3B92B6801332B60AB68013BAB60AB68D0
S1134180002B7FF437AF2B6A1BB16A6A01212846E2
S11341909847AB68002B7FF42DAF00221D493846A9
S11341A000F0B7F801221C49384600F0B2F821E7C4
S11341B02B6802332B60AB68023BAB60DFE71D4921
S11341C0204600F003F900283FF41BAF0E4B53F8D0
S11341D02640A368002B7FF414AF94F82830012BF9
S11341E00BD03046FFF7ACFC236A002B3FF409AF39
S11341F0626A02212046984703E73046FFF76EFCC7
S1134200F2E700BF346800007400002013000200CD
S1134210150003001700030016000300110002003C
S1134220100002001200020000C01FC015000200AE
S11342301700020016000200064B0361064B43619F
S113424000238361036243624FF470328262C3626B
S1134250704700BF0400000F00C01FC010B40C461C
S113426002B14C1C022C0CD0836923F0100343EAE6
S113427004138361036923F0005303615DF8044B65
S11342807047036943F000530361F7E7826901F063
S1134290FE0322F0020213438361836923F00103C6
S11342A001F001011943816170478369C1F3002260
S11342B023F0804343EA82738361C9B20177704774
S11342C0836923F08043C1F3002243EA827323F01D
S11342D00043C1F3402243EAC2738361C9B2017748
S11342E070478369DB0F1B020B80C269D2B2134390
S11342F00B80704783695B0D03F400730B80826944
S1134300D20F43EA02230B80C269D2B213430B805B
S1134310704710B48BB2090C013906290ED8DFE8B6
S113432001F0040D100D0D1A2400016901249C40B4
S113433021EA040102FA03F30B4303615DF8044B21
S11343407047816901249C4021EA040102FA03F3C5
S11343500B438361F2E7416A01249C4021EA040192
S113436002FA03F30B434362E8E7816A01249C40A9
S113437021F4403121EA040102FA03F30B4383627E
S1134380DCE70B0C013B062B1ED8DFE803F0041D11
S11343900B1D1D111700036988B223FA00F000F009
S11343A001007047806989B2C84000F0010070477D
S11343B0406A89B2C84000F001007047806A89B23F
S11343C0C84000F001007047002070470B0C023B0E
S11343D0052B1DD8DFE803F0031C0A1C10164369E3
S11343E088B223FA00F000F001007047C06989B276
S11343F0C84000F001007047406A89B2C84000F02C
S113440001007047806A89B2C84000F0010070471B
S11344100020704738B505460C460A460949FFF79F
S113442078FF224608492846FFF773FF22460749CA
S11344302846FFF76EFF224605492846FFF769FF25
S113444038BD00BF1B000300180003001A0003005E
S11344501900030008B50020FFF79AFD08BD08B550
S11344600120FFF795FD08BD08B50220FFF790FD78
S113447008BD60B170B506460C460025204600F024
S11344804FF801351834AE42F8D1002070BD002039
S1134490704710B4036801248C4023EA04038A4063
S11344A01A4302605DF8044B7047006970470000CE
S11344B0194B984204D0194B984220D0FF207047E2
S11344C0102927D8DFE801F0090C262626262626FF
S11344D026262626260F1215180042F001007047E2
S11344E042F00200704742F00400704742F00800B6
S11344F0704702F00E00704702F00D00704719B1CA
S1134500012904D0FF20704702F00B00704702F02D
S113451007007047FF20704700A0044000B004402B
S113452038B504460068616850F82120237A012BCD
S11345303FD0002B3AD0022B40D0657A2D0105F0F4
S1134540100322F050051D43A37A9B0103F040039E
S11345502B4323F4E065E37A082B32D01B0203F4E7
S1134560E0632B43227BD20392B223F478231343D8
S1134570627B120402F470221343A27B0AB143F05B
S113458080732268616842F821302168D1F8C02024
S113459060680123834022EA0302E37B83401343E0
S11345A0C1F8C030E37A012B21D038BD22F00202D9
S11345B0C3E722F0010242F00202BEE742F0030226
S11345C0BBE71B4B5A6802F00F02FFF771FFFF288D
S11345D00BD0174B5A6822F00F025A605A6800F049
S11345E00F00104358600023B8E70023B6E72169A1
S11345F04B69227D22B1012A0AD0012A05D10BE0A0
S1134600616801228A4023EA020322695361CCE7EC
S11346106068012282401343656808680122AA4049
S113462020EA0200627DAA4002430A60EDE700BF6F
S113463000800440002070472DE9F04180460C467C
S113464015461F46FFF7F6FF144B53F82060144B32
S113465013F810303BB135B1114B03EB40004378F4
S1134660A5EB4305073D012C10D044B1042C12D115
S11346703B46EAB201214046B047BDE8F0813B46E3
S1134680EAB200214046B047BDE8F0813B46EAB2B9
S113469000214046B047BDE8F08100BF2002002061
S11346A08000002070B58EB003781BB1012630461F
S11346B00EB070BD314B1B78002B4ED00022304B16
S11346C01A700B6800930A798DF806208A798DF8A0
S11346D00820CA798DF80720CA6804920A690592ED
S11346E04A6906928A6803928A6907920A6A099259
S11346F04A6A0A928A6A0B92CA690892CA6A0C9236
S11347004A798DF809200A6B002A2DD001248DF8EE
S1134710054012788DF8042000258DF835508DF869
S1134720345003EB420307330093154B1C705A704B
S11347300C4605466A4613490079FDF7D7FF06463D
S11347400028B4D10E4B1B78002BB0D0236B5A68D1
S113475059782879FEF79AF9A9E742680A4B1A6052
S11347600122064B1A70A9E700238DF805308DF855
S113477004308DF835308DF83430D9E79C010020B1
S113478080000020840000209801002003780BB1F1
S11347900120704770B584B00D4614464668304613
S11347A0FFF748FFE3788DF8043008230293237859
S11347B08DF80C30A3788DF80D3063788DF80E30B9
S11347C000238DF80F3005EB40120B4B43F82240C9
S11347D00A4B13F8103033B1084B03EB4000437815
S11347E005EB43050735002301AAE9B2F0B2FEF751
S11347F0DFF804B070BD00BFA001002080000020DD
S1134800F0B585B01E46037813B1012005B0F0BDA4
S11348100D46144647683846FFF70CFFE3788DF8D9
S113482004302378002B14BF4022082202928DF812
S11348300C30A3788DF80D3063788DF80E30237921
S11348408DF80F3005EB40120A4B43F822400A4B17
S113485013F8103033B1084B03EB4000437805EBF9
S113486043050735334601AAE9B2F8B2FEF7DAF890
S1134870CCE700BFA00100208000002003780BB12A
S11348800120704770B586B00D4614464668304620
S1134890FFF7D0FE05EB4012144B53F82230DA78C0
S11348A08DF80C2094F8482004921A788DF814207E
S11348B09A788DF815205A788DF816201B798DF882
S11348C017300B4B13F8103033B1094B03EB400096
S11348D0437805EB4305073563680834009403AA5D
S11348E0E9B2F0B2FEF784F806B070BDA001002072
S11348F08000002003780BB10120704770B50C468E
S1134900154646683046FFF795FE0B4B13F81030FA
S11349103BB164B1084B03EB4000437804EB430420
S113492007342A46E1B2F0B2FEF7C4F870BD294656
S1134930F0B2FEF7C4F870BD80000020F8B504782A
S11349400CB10120F8BD1F4616460D460446012150
S11349500079FDF727FE3B46F2B229462079FDF7A0
S113496039FEF8BD0378BBB970B515460C4669B17C
S113497046683046FFF75EFE084B43F820402A465F
S11349800749F0B2FEF7C6F9002070BD0021007996
S1134990FEF7C0F9002070BD0120704720020020FE
S11349A039460000024A136801331360704700BFA0
S11349B02402002010B50446FEF7A4FE2378DBB2DF
S11349C0FF2B08D023780133DBB223700024FEF7D9
S11349D08BFE204610BD0124F9E738B504460D4688
S11349E0FEF790FE2570FEF77FFE002038BD002004
S11349F07047082812D90C2801D8092070471028BC
S1134A0001D80A207047142801D80B2070471828B1
S1134A1001D80C207047202801D80D207047312878
S1134A2034BF0E200F20704710B485B00446084BE5
S1134A300FCB0DF1100C0CE90F000F2C9DBF63463A
S1134A40E41814F8100C402005B05DF8044B7047CE
S1134A50BC65000001B1704710B50A4C22460A48F3
S1134A60FFF748FF0122094B1A70094A1368013302
S1134A70136094F8482004F10801606800F038FCE1
S1134A8010BD00BF2C020020CC65000028020020CD
S1134A907802002090B3F0B595B005461F460E4647
S1134AA09DF86840402C28BF4024002301930292C3
S1134AB02046FFF79EFFFFF7B7FF8DF84C002CB19F
S1134AC027B12246394603A801F046F99DF84C2047
S1134AD0A2420BD80A4A01210A48FFF757FE01AA4D
S1134AE031462846FFF7CAFE15B0F0BD14AB1819BD
S1134AF0121B0021443801F03AF9EBE7012070471A
S1134B00E887FF1FCC65000010B5104C1049204603
S1134B10FFF7C8FD00230F4A19462046FFF770FE31
S1134B200D4A01212046FFF731FE00231A4619469B
S1134B302046FFF703FF002208492046FFF712FF33
S1134B40074A00212046FFF7D5FE10BDCC650000C2
S1134B500084FF1FE087FF1FE887FF1F554A0000FE
S1134B602C020020034B6FF07F425A6000229A60AF
S1134B701A60704710E000E030B40A4A55680A4BE6
S1134B801B6803FB00F09268002406498B689A4274
S1134B90FCD0224498BF5219D41A1A468442F5D341
S1134BA030BC704710E000E07C02002058B170B5C2
S1134BB0054600244FF47A763046FFF7DDFF0134D2
S1134BC0A542F9D170BD704710B582B001A900208B
S1134BD0FDF7BCF8074C084A019BA2FB03239B0C7E
S1134BE02360FFF7BFFF0322044B1A60206802B062
S1134BF010BD00BF7C02002083DE1B4310E000E0F8
S1134C0008B501280AD02B4B1B7853B92A48FFF763
S1134C104CFC10F0040F37D1002008BD0122254BB5
S1134C201A702548FFF741FC10F0040F05D0224804
S1134C30FFF73BFC10F0080F0DD10A20FFF7B6FF79
S1134C4000221C4B1A701C48FFF72FFC10F0040FB5
S1134C5008D1012008BD1848FFF727FC10F0100FF9
S1134C60D4D1EAE71448FFF720FC10F0080F01D173
S1134C70022008BD1048FFF718FCC0F300100028FC
S1134C800CBF0320002008BD0B48FFF70EFC10F0FA
S1134C90080F01D1002008BD0748FFF706FC10F0FB
S1134CA0100F04D00122034B1A70002008BD00200D
S1134CB008BD00BFED87FF1FC0F00F4008B50121FC
S1134CC00020FEF79FFE034A13680133136000F0CF
S1134CD029FB08BD8002002070B582B000232F4A52
S1134CE001212F48FCF7B0FF00210846FCF7BAFF6A
S1134CF0FFF76AFF2B491620FFF7BBFB2A4A2B4913
S1134D000020FFF7D5F8FFF7FFFE294C01220B2105
S1134D102046FFF7BEFB01220C212046FFF7B9FB1A
S1134D2001F006F823490020FEF7F4FC224A002192
S1134D300846FEF7A3FD002220493020FEF7A2FC1E
S1134D4001210020FEF73CFD1D4E1E4D1E4C0FE0C0
S1134D5040230093334640F2777201212846FFF73F
S1134D6099FEC1B2194800F039F806E000F0F0FAF3
S1134D700020FFF745FF0128EAD0154B1968A4FB72
S1134D8001239B094FF47A7202FB1313002BEDD11C
S1134D90104B1A68104800F021F8E7E700000020E3
S1134DA0AC84FF1F2485FF1FD86500000400002089
S1134DB080F00F40D46500000C85FF1FBD4C00003F
S1134DC084020020CC650000D34D621048680000C6
S1134DD080020020780200206C6800000FB410B537
S1134DE082B004AA52F8041B00920C4C204600F036
S1134DF0DFFF2046FBF7BEFC024621460020FEF7FB
S1134E00BFFF002401A92046FEF7CCFF0028F9D1FA
S1134E1002B0BDE8104004B0704700BFC4020020D7
S1134E20012901D81320704738B51D4614460120C6
S1134E3000F03AFC00F0B2FB5023237001236370AE
S1134E400023A3703223E370132323718823637137
S1134E5006232B80102038BD012901D81320704768
S1134E6038B51D461446022000F01EFC00F096FBE7
S1134E7050232370022363700023A3703223E37052
S1134E80132323718823637106232B80102038BDDC
S1134E90012901D81320704738B51D461446032054
S1134EA000F002FC50232370032363700023A370DB
S1134EB03223E370132323718823637106232B8029
S1134EC0102038BD012901D81320704738B51D467C
S1134ED01446042000F0E8FB50232370042363707D
S1134EE00023A3703223E370132323718823637197
S1134EF006232B80102038BDE8B110B40446E2B17B
S1134F00EBB102291DD94078A17841EA002109B208
S1134F10B1F5017F19D16221117002215170042170
S1134F2091700B490868C2F803000979D17108220D
S1134F301A80102006E022207047222002E022205E
S1134F4000E013205DF8044B70473120FAE700BFFE
S1134F507C680000012936D970B51E461446457890
S1134F6000F090FB08B1372070BD00F001FB012870
S1134F7018D0164D284600F02DFBA5F10B00022396
S1134F8005F8023C6723237001236370C37AA3707E
S1134F906B78E370AB782371EB786371062333800D
S1134FA0102070BD00F0EAFA8542E2D8672323702E
S1134FB0012363700023A370E370237163710623DC
S1134FC03380102070BD1320704700BF970300206A
S1134FD0052901D813207047F0B583B01E46154645
S1134FE00446477800F04EFB10B1372003B0F0BD03
S1134FF000F0BEFA012805D000F0BAFA02280CD05D
S11350002420F3E700F0BAFA8742F5D867232B701F
S113501002236B7033801020E8E7A3788DF8043006
S1135020E3788DF8053023798DF8063063798DF8AF
S11350300730394601A800F0DBFA18B900F008FB84
S11350403520D3E7384600F09FFA67232B700223FC
S11350506B7033801020C9E72DE9F04F83B0002432
S1135060ADF80640002879D00746002A78D0002BF6
S113507078D0032903D8132003B0BDE8F08F1D4670
S113508014460E4690F80190837890F8038048EA1D
S113509003280FFA88F81FFA88FA504600F020FA1D
S11350A08346002860D000F03DFA78B1B9F1020FD0
S11350B022D0B9F1030F2CD0B9F1010F0FD0122077
S11350C0102833D0BDF806302B80D5E7DBF8040078
S11350D000F0FCFA00280CBF7E203320CCE7DBF87C
S11350E00CB0BBF1000F33D0311F0DF10603224683
S11350F089B2381DD847E3E7DBF810B0BBF1000FE5
S113510028D0311F0DF10603224689B2381DD84735
S1135110D6E7DBF814B0BBF1000F1DD0311F0DF141
S11351200603224689B2381DD847C9E7BDF80630C0
S1135130002BC7D17123237084F801904FEA1A2AF7
S113514084F802A084F803800423ADF80630B9E79C
S11351501220B7E71220B5E71220B3E722208BE72D
S1135160222089E7222087E7312085E72DE9F041D5
S1135170ADF5805D82B00E460023ADF806300478AC
S113518042F250034C4AD15C002947D0054642F212
S11351904C03D0580378A3420BD003460139C9B25B
S11351A000EB01118B4239D0103318461A78A24211
S11351B0F8D1002832D0012E39D96B7803F07F085A
S11351C0DB093D4A53708768002F35D0017B0029E5
S11351D032D03B7843450CD03B460139C9B207EB8A
S11351E00111994228D010331F461A784245F8D14C
S11351F013B3B86800F06AFA00284DD03B7B002B4B
S113520034D17B68002B55D085F801807F680DF17F
S1135210060302AA31462846B84718E0264B1B78F5
S1135220012B42D01121204600F0F0F83DE013217B
S1135230204600F0EBF838E043685BB385F8018062
S113524047680DF1060302AA31462846B8471028DC
S11352501DD1194B5B7813B1174B1B782BBBBDF8D1
S1135260061051B102A800F00DFC1EE0787B00F09E
S11352709DF90028C5D133200FE040348DF8044057
S11352808DF80580022101A800F0FCFB0DE07828D0
S11352900BD002E0122000E07E20074B1B78012B8C
S11352A003D00146204600F0B1F80DF5805D02B050
S11352B0BDE8F0811220F0E78C03002070B50646AB
S11352C00D460A4C42F25C020021204600F04FFDDC
S11352D042F24C03E65042F25003E55400F082FAE5
S11352E000F0D8F900F032F970BD00BF8C03002043
S11352F008B540F24C73984207D040F2DF739842ED
S11353000CD10120064B187002E00020044B1870E9
S11353100846114600F09CFA00F0E4F908BD00BF0D
S11353208C03002008B500F027FC00F0E9F900F038
S11353309FF900F09DF8054B1B7F2BB1034B9B6934
S113534013B1013B014A936108BD00BF8C030020E7
S113535030B583B000F06AFC28B100F097F800285B
S11353603BD103B030BD02A8002320F8023D00F079
S113537063FC03460028F0D0BDF806100029ECD0E9
S1135380214A1278012A0DD01F4C3222A261012237
S11353902277002565771846FFF7E8FE257700F0A9
S11353A057FCDAE742F24C0217488458002CF6D036
S11353B042F25002805C0028F1D01D782278AA4283
S11353C0E2D022460138C0B204EB0014A242E6D077
S11353D012F8100FA842F9D1D6E700F071F804468C
S11353E000F060F848B9204600F022F8064B41F27C
S11353F088329A6101225A77B3E77821204600F077
S113540005F800F029F8ACE78C03002000B583B060
S11354107F238DF804308DF805008DF806100322E3
S113542001A940F25C7000F045FC03B05DF804FB98
S113543008B57821FFF7EAFF064B93F8203043B113
S1135440044B93F82120013283F821204FF4FA62AF
S11354505A6208BD8C030020044B002283F82020EC
S113546083F821205A6283F8282070478C03002097
S1135470054B93F820302BB1034B5B6A13B1013B0E
S1135480014A5362704700BF8C030020044B93F819
S1135490200018B1586AB0FA80F04009704700BF84
S11354A08C030020054B93F8200028B193F82100C9
S11354B0022894BF00200120704700BF8C03002005
S11354C0014B93F8280070478C030020034B42F2F1
S11354D05402985042F25802995470478C030020A9
S11354E042F254030E4AD358B3B142F258020C4963
S11354F08A5C9AB1198881420ED0013AD2B2013243
S1135500C2EBC20203EB82021C339A4203D0198815
S11355108142F9D100E00023184670470023FBE7DD
S11355208C03002078B110B50446406800F0CEF832
S1135530034608B1227A0AB9184610BD607A00F011
S113554035F80346F8E7002318467047044B002259
S11355505A729A72DA731A61C3F80B20704700BF4B
S11355608C030020014B5861704700BF8C0300205E
S1135570014B587A704700BF8C030020014B987A86
S1135580704700BF8C030020034B01225A729872AB
S11355900022DA73704700BF8C030020024B002204
S11355A05A729A72704700BF8C030020034660B1A0
S11355B0074A527A012A01D000207047044A907A9F
S11355C0984234BF0020012070470120704700BF7B
S11355D08C03002058B110B5044600F091FB030E73
S11355E02370030C6370030AA370E07010BD70474E
S11355F030B30246154B5B6923B31878884201D057
S1135600002070475968F9B110B514785078000437
S113561040EA0460D4782043947840EA04240B4A96
S1135620D07A137B1B0443EA0063907B0343507BD3
S113563043EA00208847844214BF0020012010BDA3
S11356400020704700207047002070478C03002022
S1135650064AD37B0133DBB2D37352692AB1117A80
S1135660994202D8D268014B1A6170478C0300201A
S1135670034B1B6913B1013B014A1361704700BF1F
S11356808C030020024B1869003018BF01207047BA
S11356908C030020034B01229A7000225A601A7274
S11356A0704700BF8C030020074B9870012806D078
S11356B0054B41F288325A6001221A727047002267
S11356C05A601A72704700BF8C030020044B9A780A
S11356D001239340034214BF01200020704700BF00
S11356E08C030020054B9B78012B06D0034B1B7ABF
S11356F01BB141F28832014B5A6070478C03002081
S113570008B5084B1B7A33B1064B5B681BB1013BF0
S1135710044A536003B108BD0120FFF7C5FFFFF73A
S11357203DFFF8E78C030020F0B591B02C4B42F21A
S11357303A029D5A42F238029A5A521B94B234B930
S1135740002141F23803264AD15411B0F0BD244F50
S113575042F23C03FE5C06F00F0343F020038DF895
S11357600030072C28BF072405F581511931224642
S113577039440DF1010000F0EFFA2B1942F23A021C
S1135780BB52731CDBB20F2B1BD842F23C02BB543E
S1135790621CD2B2694640F25C7000F08BFA104B86
S11357A042F23A029A5A42F238015B5A9A420ED3B2
S11357B00B4B002241F238015A5442F248015A5428
S11357C0C3E7002142F23C03054AD154E0E7044B0D
S11357D003F5015242F23E015B5C1360B5E700BF82
S11357E08C030020194B002283F82C2041F22C0159
S11357F05A5241F22E015A5241F230015A5441F2A6
S113580032015A5241F234015A5041F238015A5489
S113581042F238015A5242F23A015A5242F23C01DF
S11358205A5442F23D015A54142042F23E01585453
S113583003F501510A6042F244015A5042F2480110
S11358405A5442F249015A54704700BF8C03002055
S1135850002800F0138170B582B0054600294DD0B0
S1135860027802F0F003102B3CD01ED9202B7AD002
S1135870302B43D141F238038149CB5C002B3DD01E
S113588042F24803CB5C002B38D012F00F0200F038
S1135890D480012A00F0E780794B002241F23801DC
S11358A05A5442F248015A5428E03BBB12F00F020A
S11358B024D0734B93F82C301BB10021704B83F828
S11358C02C1093B26E4C41F22C01635241F22E0122
S11358D06352691C04F12D0000F03EFA002384F8A1
S11358E02C300BE0120202F4706342781A43A2F1E6
S11358F008039BB240F6F770834201D902B070BD31
S11359005F4C41F22C03E25202398AB241F22E0377
S1135910E252012341F23001635484F82C30A91C73
S113592004F12D0000F018FA30238DF8003008221D
S11359308DF8012014238DF8023000238DF80330F4
S11359408DF804308DF805308DF806308DF8073069
S1135950694640F25C7000F0ADF94FF47A7241F29E
S11359603403E250CAE7464B93F82C30002BC5D0E1
S113597041F230034248C35C02F00F02934203D069
S1135980002280F82C20B9E74C1EA4B23C4B41F213
S11359902E02985A41F22C029B5A02199A42C4BF11
S11359A01B1A9CB22D30364E2246691C304400F03E
S11359B0D3F941F22E03F25A1444A4B2F45241F240
S11359C03002B35C0133DBB2B3540F2B0BD900218B
S11359D0B15441F22C02B35AA34214D80022284BEA
S11359E083F82C208AE741F22C0225498A5AA242E4
S11359F0F4D913F0070F06D04FF47A7141F234034F
S1135A001F4AD1507AE730238DF8003008228DF8F0
S1135A10012014238DF8023000238DF803308DF813
S1135A2004308DF805308DF806308DF8073069465E
S1135A3040F25C7000F03EF9DEE74178104B42F230
S1135A403D029954817842F23E029954002242F276
S1135A5048015A5442F249015A5442F244015A50FC
S1135A60FFF762FE4AE7064B012142F249029954CC
S1135A704FF47A7142F2440299503FE7704700BFF5
S1135A808C03002000286ED0F0B591B005464B1E63
S1135A909BB240F6FE72934267D841F23803344A0F
S1135AA0D35C0BB1022061E00C460A460146314842
S1135AB000F052F92E4B42F238029C52002142F27D
S1135AC03A029952012142F23C0299543E2C38D9AF
S1135AD0C4F3032343F010038DF800308DF8014024
S1135AE02B460DF1020205F130041E685D689868CA
S1135AF0D968166055609060D16010331032A342AB
S1135B00F3D11C68586899681460506091609B894F
S1135B109381174B3E2142F23A029952012241F2FB
S1135B2038015A5442F248015A544FF47A7142F2FD
S1135B30440299504022694640F25C7000F0BAF881
S1135B4014E0E6B210AF07F8406D224629460DF185
S1135B50010000F001F9721CD2B2394640F25C70C7
S1135B6000F0A8F802E001207047012011B0F0BD58
S1135B708C030020C513002008B52A4B93F82C3061
S1135B806BB141F23403274AD35843B1013B41F28C
S1135B90340224498B5013B9002281F82C2041F29D
S1135BA03803204AD35C002B3AD042F24803D35C3A
S1135BB0ABB142F24403D35893B3013B42F24402E3
S1135BC018498B5063BB0B46002241F238015A54EA
S1135BD042F248015A5408BDFFF7A6FD08BD124B16
S1135BE01B68EBB1013B104A1360CBB9A2F501531A
S1135BF042F23C02995C42F23D029A5CB1FBF2F340
S1135C0002FB131313F0FF0FE6D1064B012142F2FE
S1135C10480299544FF47A7142F24402995008BDF3
S1135C2008BD00BF8C030020CC230020014B93F857
S1135C302C0070478C03002020B141F22C02024951
S1135C408A5A0280014870478C030020B90300205F
S1135C50054B002283F82C2041F22C015A5241F2C8
S1135C602E015A52704700BF8C03002080F09150DF
S1135C7080F4A21080F4B35080F0180070477121B2
S1135C8011700121517002209070D17000211171A6
S1135C9005221A8010207047712111700321517060
S1135CA0022191700121D1700021117105221A8005
S1135CB010207047F1B1FAB130B593B005460C2A03
S1135CC028BF0C22144602A800F046F80B2C09D970
S1135CD00C23009302AB2A4601210848FEF7DAFEA2
S1135CE013B030BDC4F10C02AA2102AB181900F0A4
S1135CF03EF8EDE70120704701207047CC650000B5
S1135D00084B1B681BB9084B1A68064B1A60054BF5
S1135D10186843F23902054901FB002020F00040D5
S1135D2018607047E8230020800200206D4EC641B1
S1135D3008B504210548FFF7C1FA0548FFF712FC2E
S1135D4001210448FFF7C2FB08BD00BFB068000092
S1135D50A06800008468000010B5431E0A44914204
S1135D6000D110BD11F8014B03F8014FF7E70244CD
S1135D700346934200D1704703F8011BF9E710B5BD
S1135D809AB04FF40274019105916FF000410391B0
S1135D9006914FF6FF71ADF8121001A9ADF810404D
S1135DA000F06CF8019B00221A701AB010BD0000BC
S1135DB013460A46014602480068FFF7E0BF00BFE9
S1135DC0F087FF1F2DE9F0478E689E4282460C46FD
S1135DD09146984635D88A8912F4906F31D0256857
S1135DE009696F1A6569022305EB450595FBF3F50F
S1135DF008F101033B449D4238BF1D46530531D58C
S1135E00294600F02DFB064650B90C23CAF8003091
S1135E10A38943F04003A3814FF0FF30BDE8F0872E
S1135E203A462169FFF798FFA38923F4906343F06E
S1135E308003A381266165613E44ED1B2660A56055
S1135E404646464528BF464632464946206800F045
S1135E509FFAA3689B1BA36023681E44266000204E
S1135E60BDE8F0872A4600F059FB06460028E1D138
S1135E702169504600F0A6FAC7E700002DE9F04F6B
S1135E809DB0804603938B891C060D4616460FD59C
S1135E900B696BB9402100F0E3FA2860286128B946
S1135EA00C23C8F800304FF0FF30C5E040236B618D
S1135EB00023099320238DF8293030238DF82A30CC
S1135EC04FF0010B37463C4614F8013B002B3CD104
S1135ED0B7EB060A0BD05346324629464046FFF735
